:100000000C9434000C9449000C9449000C94490061
:100010000C9449000C9449000C9449000C9449003C
:100020000C9449000C9449000C9449000C9449002C
:100030000C9449000C9449000C9449000C9449001C
:100040000C9449000C9449000C9449000C9449000C
:100050000C9449000C9449000C9449000C944900FC
:100060000C9449000C94490011241FBECFEFD8E036
:10007000DEBFCDBF11E0A0E0B1E0E2E1F1E002C0FF
:1000800005900D92A630B107D9F70E944B000C9451
:1000900087000C940000CF93DF9300D000D000D0F5
:1000A000CDB7DEB786E0E0E0F1E0DE011196019029
:1000B0000D928A95E1F71092C50087E68093C400FF
:1000C00088ED8093C10086E08093C200A0ECB0E090
:1000D0009E012F5F3F4FF12C70E006EC10E08C91F9
:1000E00085FFFDCFA9018F2D972F06C0FA016191E1
:1000F000AF01F80160830196F90101900020E9F752
:100100003197E21BF30B8E179F0780F3E8CFF8942B
:02011000FFCF1F
:0601120068656C6C6F00D3
:00000001FF
