:100000000C9434000C9446000C9446000C9446006A
:100010000C9446000C9446000C9446000C94460048
:100020000C9446000C9446000C9446000C94460038
:100030000C9446000C9446000C9446000C94460028
:100040000C9446000C9446000C9446000C94460018
:100050000C9446000C9446000C9446000C94460008
:100060000C9446000C94460011241FBECFEFD8E03C
:10007000DEBFCDBF21E0A0E0B1E001C01D92A33002
:10008000B207E1F70E94A5000C94ED000C9400006B
:1000900084B18FEF84B9ECE7F0E0808180648083E5
:1000A000EAE7F0E0808187608083808180688083D8
:1000B00008951092C50083E38093C40088E1809383
:1000C000C10086E08093C2000895ECE7F0E09081E3
:1000D000907F90839081892B8083EAE7F0E0808194
:1000E00080648083808186FDFDCF8091780090912F
:1000F00079000895CF93DF934AE060E071E00E94B9
:10010000B800A0E0B1E023E031E0E0ECF0E0C6ECC4
:10011000D0E0808185FFFDCF8D918883A217B30742
:10012000C1F7E0ECF0E0808185FFFDCF8DE08093AA
:10013000C6002FEF83EC99E0215080409040E1F71A
:1001400000C00000DF91CF9108950E9459000E94E5
:100150004800C1E080E090E00E946500813022E02C
:10016000920714F0C5B901C028980E947A00F2CF16
:10017000BB274A3031F4992322F4BDE29095819552
:100180009F4F0C94C400BB27FB015527AA27880F5B
:10019000991FAA1FA41710F0A41B83955051B9F7FB
:1001A000A05DAA3308F0A95DA193009779F7B1117A
:1001B000B1931192CB010C94DD00DC01FC01672F9F
:1001C00071917723E1F7329704C07C916D9370832E
:0E01D0006291AE17BF07C8F30895F894FFCFF1
:00000001FF
