:100000000C9434000C9449000C9449000C94490061
:100010000C9449000C9449000C9449000C9449003C
:100020000C9449000C9449000C9449000C9449002C
:100030000C9449000C9449000C9449000C9449001C
:100040000C9449000C9449000C9449000C9449000C
:100050000C9449000C9449000C9449000C944900FC
:100060000C9449000C94490011241FBECFEFD8E036
:10007000DEBFCDBF11E0A0E0B1E0EAE5F2E002C0F2
:1000800005900D92A031B107D9F70E944B000C9456
:100090002B010C9400007F928F929F92AF92BF929F
:1000A000CF92DF92EF92FF920F931F93CF93DF9344
:1000B000CDB7DEB763970FB6F894DEBF0FBECDBFE6
:1000C00080E1E0E0F1E0DE01119601900D928A9569
:1000D000E1F71092C50083E38093C40088ED80931C
:1000E000C10086E08093C200AE014F5F5F4F20E009
:1000F00030E0BA01E0ECF0E006EC10E00AC08081EC
:1001000085FFFDCFDA018D91AD01D8018C932F5F72
:100110003F4FDB010D900020E9F71197A61BB70BAD
:100120002A173B0760F30F2EF4E6AF2EB12CF02D0B
:1001300000EC10E07E01B1E1EB0EF11C712C812C82
:100140000F2EF6ECCF2ED12CF02D0F2EFDE09F2E92
:10015000F02D8A2D9B2DF801208125FFFCCF4AE050
:1001600050E0B7010E94EB00D701272D382D09C0C0
:10017000F801808185FFFCCF8D91F60180832F5F90
:100180003F4FF70101900020E9F73197EE19FF0981
:100190002E173F0768F3D8018C9185FFFCCFF6013D
:1001A0009082F1E0AF1AB108A1F680E090E063968A
:1001B0000FB6F894DEBF0FBECDBFDF91CF911F9178
:1001C0000F91FF90EF90DF90CF90BF90AF909F90F6
:1001D0008F907F9008954532510520F4423010F001
:1001E0000C94F600FB011082CB010895BB274A3026
:1001F00031F4992322F4BDE2909581959F4F0C94A0
:100200000201BB27FB015527AA27880F991FAA1FA8
:10021000A41710F0A41B83955051B9F7A05DAA3321
:1002200008F0A95DA193009779F7B111B1931192EC
:10023000CB010C941B01DC01FC01672F719177232A
:10024000E1F7329704C07C916D9370836291AE1791
:0A025000BF07C8F30895F894FFCF2C
:10025A00496F542041726D79206F66203330300027
:00000001FF
